:020000040800F2
:1000000000500020914D0008F1140008F31400087E
:10001000F5140008F7140008F914000800000000A7
:10002000000000000000000000000000E1470008A0
:10003000FB1400080000000081480008C5480008C3
:10004000D94D0008D94D0008D94D0008D94D0008F8
:10005000D94D0008D94D0008D94D0008D94D0008E8
:10006000D94D0008D94D0008D94D0008D94D0008D8
:10007000D94D0008D94D0008D94D0008D94D0008C8
:10008000D94D0008D94D0008D94D0008D94D0008B8
:10009000D94D0008D94D0008D94D0008D94D0008A8
:1000A000D94D0008FD140008D94D0008D94D0008AD
:1000B000D94D0008D94D0008D94D0008D94D000888
:1000C000D94D0008D94D0008D94D0008D94D000878
:1000D000D94D0008D94D00080D150008D94D00086C
:1000E000D94D0008D94D0008D94D00080000000086
:1000F0000000000000000000000000000000000000
:0C01000000000000000000005FF808F1A3
:1001100010B5054C237833B9044B13B10448AFF341
:1001200000800123237010BDE401002000000000C6
:100130002C98000808B5034B1BB103490348AFF3E3
:10014000008008BD00000000E80100202C98000895
:10015000034613F8012B002AFBD1181A0138704707
:1001600081F0004102E000BF83F0004330B54FEA68
:1001700041044FEA430594EA050F08BF90EA020FD5
:100180001FBF54EA000C55EA020C7FEA645C7FEA68
:10019000655C00F0E2804FEA5454D4EB5555B8BF8B
:1001A0006D420CDD2C4480EA020281EA030382EAFC
:1001B000000083EA010180EA020281EA0303362D8E
:1001C00088BF30BD11F0004F4FEA01314FF4801C61
:1001D0004CEA113102D0404261EB410113F0004F73
:1001E0004FEA03334CEA133302D0524263EB43032A
:1001F00094EA050F00F0A780A4F10104D5F1200EC8
:100200000DDB02FA0EFC22FA05F2801841F1000122
:1002100003FA0EF2801843FA05F359410EE0A5F1F6
:1002200020050EF1200E012A03FA0EFC28BF4CF027
:10023000020C43FA05F3C01851EBE37101F00045DD
:1002400007D54FF0000EDCF1000C7EEB00006EEBEA
:100250000101B1F5801F1BD3B1F5001F0CD3490874
:100260005FEA30004FEA3C0C04F101044FEA4452CB
:1002700012F5800F80F09A80BCF1004F08BF5FEA52
:10028000500C50F1000041EB045141EA050130BD32
:100290005FEA4C0C404141EB0101013C28BFB1F544
:1002A000801FE9D291F0000F04BF01460020B1FA8F
:1002B00081F308BF2033A3F10B03B3F120020CDA62
:1002C0000C3208DD02F1140CC2F10C0201FA0CF040
:1002D00021FA02F10CE002F11402D8BFC2F1200CA5
:1002E00001FA02F120FA0CFCDCBF41EA0C0190405B
:1002F000E41AA2BF01EB0451294330BD6FEA0404A4
:100300001F3C1CDA0C340EDC04F11404C4F120028E
:1003100020FA04F001FA02F340EA030021FA04F3A0
:1003200045EA030130BDC4F10C04C4F1200220FAF7
:1003300002F001FA04F340EA0300294630BD21FA35
:1003400004F0294630BD94F0000F83F4801306BFFB
:1003500081F480110134013D4EE77FEA645C18BFEF
:100360007FEA655C29D094EA050F08BF90EA020F86
:1003700005D054EA000C04BF1946104630BD91EA7E
:10038000030F1EBF0021002030BD5FEA545C05D181
:100390004000494128BF41F0004130BD14F58004C0
:1003A0003CBF01F5801130BD01F0004545F0FE4134
:1003B00041F470014FF0000030BD7FEA645C1ABF69
:1003C000194610467FEA655C1CBF0B46024650EAA0
:1003D000013406BF52EA033591EA030F41F40021CC
:1003E00030BD00BF90F0000F04BF0021704730B552
:1003F0004FF4806404F132044FF000054FF0000127
:1004000050E700BF90F0000F04BF0021704730B5E7
:100410004FF4806404F1320410F0004548BF4042BC
:100420004FF000013EE700BF42004FEAE2014FEA11
:1004300031014FEA02701FBF12F07F4393F07F4FEC
:1004400081F06051704732F07F4208BF704793F0EF
:100450007F4F04BF41F40021704730B54FF4607402
:1004600001F0004521F000411CE700BF50EA010205
:1004700008BF704730B54FF000050AE050EA0102AE
:1004800008BF704730B511F0004502D5404261EB1E
:1004900041014FF4806404F132045FEA915C3FF45F
:1004A000D8AE4FF003025FEADC0C18BF03325FEAFC
:1004B000DC0C18BF033202EBDC02C2F1200300FAAD
:1004C00003FC20FA02F001FA03FE40EA0E0021FAD2
:1004D00002F11444BDE600BF70B54FF0FF0C4CF4C0
:1004E000E06C1CEA11541DBF1CEA135594EA0C0F72
:1004F00095EA0C0F00F0DEF82C4481EA030621EAAD
:100500004C5123EA4C5350EA013518BF52EA0335E7
:1005100041F4801143F4801338D0A0FB02CE4FF099
:100520000005E1FB02E506F00042E0FB03E54FF0C9
:100530000006E1FB03569CF0000F18BF4EF0010EC1
:10054000A4F1FF04B6F5007F64F5407404D25FEABD
:100550004E0E6D4146EB060642EAC62141EA555170
:100560004FEAC52040EA5E504FEACE2EB4F1FD0CB2
:1005700088BFBCF5E06F1ED8BEF1004F08BF5FEA30
:10058000500E50F1000041EB045170BD06F00046E2
:1005900046EA010140EA020081EA0301B4EB5C048F
:1005A000C2BFD4EB0C0541EA045170BD41F4801187
:1005B0004FF0000E013C00F3AB8014F1360FDEBFAC
:1005C000002001F0004170BDC4F10004203C35DA88
:1005D0000C341BDC04F11404C4F1200500FA05F30B
:1005E00020FA04F001FA05F240EA020001F00042AC
:1005F00021F0004110EBD37021FA04F642EB060122
:100600005EEA430E08BF20EAD37070BDC4F10C044B
:10061000C4F1200500FA04F320FA05F001FA04F20F
:1006200040EA020001F0004110EBD37041F10001FB
:100630005EEA430E08BF20EAD37070BDC4F1200506
:1006400000FA05F24EEA020E20FA04F301FA05F26E
:1006500043EA020321FA04F001F0004121FA04F216
:1006600020EA020000EBD3705EEA430E08BF20EAE6
:10067000D37070BD94F0000F0FD101F00046400020
:1006800041EB010111F4801F08BF013CF7D041EAA2
:10069000060195F0000F18BF704703F000465200A6
:1006A00043EB030313F4801F08BF013DF7D043EA77
:1006B0000603704794EA0C0F0CEA135518BF95EA2D
:1006C0000C0F0CD050EA410618BF52EA4306D1D1B4
:1006D00081EA030101F000414FF0000070BD50EAD3
:1006E000410606BF1046194652EA430619D094EA5D
:1006F0000C0F02D150EA013613D195EA0C0F05D147
:1007000052EA03361CBF104619460AD181EA03019A
:1007100001F0004141F0FE4141F470014FF0000052
:1007200070BD41F0FE4141F4780170BD70B54FF0ED
:10073000FF0C4CF4E06C1CEA11541DBF1CEA13556D
:1007400094EA0C0F95EA0C0F00F0A7F8A4EB05044F
:1007500081EA030E52EA03354FEA013100F0888046
:100760004FEA03334FF0805545EA131343EA12630F
:100770004FEA022245EA111545EA10654FEA0026C4
:100780000EF000419D4208BF964244F1FD0404F57D
:10079000407402D25B084FEA3202B61A65EB0305D9
:1007A0005B084FEA32024FF480104FF4002CB6EB96
:1007B000020E75EB030E22BFB61A754640EA0C0016
:1007C0005B084FEA3202B6EB020E75EB030E22BF56
:1007D000B61A754640EA5C005B084FEA3202B6EB97
:1007E000020E75EB030E22BFB61A754640EA9C0056
:1007F0005B084FEA3202B6EB020E75EB030E22BF26
:10080000B61A754640EADC0055EA060E18D04FEAE3
:10081000051545EA16754FEA06164FEAC30343EA83
:1008200052734FEAC2025FEA1C1CC0D111F4801F50
:100830000BD141EA00014FF000004FF0004CB6E749
:1008400011F4801F04BF01430020B4F1FD0C88BFE8
:10085000BCF5E06F3FF6AFAEB5EB030C04BFB6EBF3
:10086000020C5FEA500C50F1000041EB045170BDE6
:100870000EF0004E4EEA113114EB5C04C2BFD4EB13
:100880000C0541EA045170BD41F480114FF0000E97
:10089000013C90E645EA060E8DE60CEA135594EA13
:1008A0000C0F08BF95EA0C0F3FF43BAF94EA0C0F16
:1008B0000AD150EA01347FF434AF95EA0C0F7FF48B
:1008C00025AF104619462CE795EA0C0F06D152EADF
:1008D00003353FF4FDAE1046194622E750EA4106C3
:1008E00018BF52EA43067FF4C5AE50EA41047FF4D4
:1008F0000DAF52EA43057FF4EBAE12E74FF0FF3C39
:1009000006E000BF4FF0010C02E000BF4FF0010C09
:100910004DF804CD4FEA410C7FEA6C5C4FEA430C82
:1009200018BF7FEA6C5C1BD001B050EA410C0CBFD1
:1009300052EA430C91EA030F02BF90EA020F002033
:10094000704710F1000F91EA030F58BF994208BF9A
:1009500090422CBFD8176FEAE37040F00100704757
:100960004FEA410C7FEA6C5C02D150EA013C07D1AE
:100970004FEA430C7FEA6C5CD6D152EA033CD3D0F9
:100980005DF8040B704700BF8446104662468C46F3
:100990001946634600E000BF01B5FFF7B7FF002826
:1009A00048BF10F1000F01BD4DF808EDFFF7F4FF4F
:1009B0000CBF012000205DF808FB00BF4DF808EDDA
:1009C000FFF7EAFF34BF012000205DF808FB00BFFD
:1009D0004DF808EDFFF7E0FF94BF012000205DF81F
:1009E00008FB00BF4DF808EDFFF7CEFF94BF0120D4
:1009F00000205DF808FB00BF4DF808EDFFF7C4FFCD
:100A000034BF012000205DF808FB00BF4FEA410C15
:100A10007FEA6C5C02D150EA013C0AD14FEA430CF8
:100A20007FEA6C5C02D152EA033C02D14FF0000035
:100A300070474FF0010070474FEA410212F5001273
:100A400015D211D56FF47873B3EB625212D94FEA15
:100A5000C12343F0004343EA505311F0004F23FAFF
:100A600002F018BF404270474FF00000704750EA54
:100A7000013005D111F0004008BF6FF00040704711
:100A80004FF00000704700BF4A0011D212F500126B
:100A900011D20DD56FF47873B3EB62520ED44FEAD6
:100AA000C12343F0004343EA505323FA02F0704756
:100AB0004FF00000704750EA013002D14FF0FF3094
:100AC00070474FF00000704738B505460C460022CD
:100AD000002328462146FFF771FF28B92846214602
:100AE000BDE8384000F00AB8284604F1004100F0A3
:100AF00005F8404261EB410138BD00BFD0B500228E
:100B00000B4B06460F46FFF7E7FCFFF7BDFF044619
:100B1000FFF768FC0022074BFFF7DEFC02460B469E
:100B200030463946FFF720FBFFF7AEFF2146D0BD28
:100B30000000F03D0000F04108B5064B984203D09C
:100B4000054B984203D008BD00F02CFBFBE700F0FA
:100B5000F5F8F8E7100F0020540F002008B50268E0
:100B6000034B9A4200D008BD01F056F9FBE700BFE5
:100B7000002C014072B6FEE700B595B02822002196
:100B80000DEB020004F05EF9002305930693079332
:100B900008930993019302930393049301220A9209
:100BA0004FF480330B930E920222119212930AA8F3
:100BB00001F05AF9C0B90F230593022306930021CF
:100BC00007914FF480630893099105A801F08CFB0D
:100BD00060B9022301930023039301A801F07EFC76
:100BE00030B915B05DF804FBFFF7C4FFFFF7C2FF93
:100BF000FFF7C0FF08B501F0FDF8FFF7BDFF00F0FB
:100C00000FF800F083FB00F09BFB00F0B3FB03F058
:100C100011FF03F00BFC01F045FF03F029FCFEE798
:100C200084B00F4B9A6942F020029A619A6902F0EF
:100C300020020192019A9A6942F004029A619A692B
:100C400002F004020292029A9A6942F008029A6142
:100C50009B6903F008030393039B04B0704700BF34
:100C6000001002400139002307E0C25C10F801C007
:100C700000F803C04254013301398B42F5DB704761
:100C800038B50D4600240EE00F4B83FB003CC31724
:100C9000C3EBAC03194603EB8303A0EB43033033F0
:100CA0002B55084601340028EED102E030232B55A5
:100CB00001349442FADB21462846FFF7D3FF002394
:100CC0002B55204638BD00BF676666662DE9F041AA
:100CD00006460F4614461D46FFF7AEFE8046FFF758
:100CE00091FB02460B4630463946FFF73DFA064671
:100CF0000F46002221464046FFF7C2FF0DB9BDE86E
:100D0000F08180462E2323542846FFF77BFB0246C2
:100D10000B460020084907F0C7FD32463B46FFF767
:100D2000DBFB08F10108A044FFF786FE2A46414696
:100D3000FFF7A6FFE3E700BF0000244008B51E4B05
:100D40001B78242B0BD00A2B1BD01C4A1278012AAB
:100D500025D0012218491A4801F02FF808BD174A7A
:100D60001278002AEFD117490A68501C086016490A
:100D70008B540122114B1A700F49114801F01DF8D4
:100D8000ECE70E4A1278012ADFD10E490A68501C9E
:100D900008600D498B54094B02221A70DEE709499D
:100DA0000A68501C086008498B5401220249044813
:100DB00001F003F8D2E700BFC00200205403002076
:100DC000540F0020BC020020F002002010B50024C7
:100DD000094B1C6064222146084804F033F8084B94
:100DE0001C7001220749084800F0E7FF044B1B78FC
:100DF000022BFBD1014810BDBC020020F0020020F4
:100E000054030020C0020020540F00202DE9F04FB1
:100E10008DB0089009914849104604F0CBF8474A34
:100E200002F10C0402F12703049302F12603039359
:100E300002F12503029302F1190BCDF804B002F17F
:100E40001803009323463E4904F024F8204603F09B
:100E5000C4FF02460B46CDE90623FFF7EDFD04462D
:100E6000384D85FB00634FEAE078C8EB63184046D5
:100E7000FFF7C8FA06460F464FF0640A0AFB18400F
:100E8000FFF7C0FADDE90623FFF770F980468946CF
:100E90002046FFF7B7FA02460B4640464946FFF7A1
:100EA00063F90022284BFFF741FC32463B46FFF72F
:100EB0005DF9CDE90A01584603F08FFF02460B4663
:100EC000CDE90623FFF7B8FD804685FB0035C61740
:100ED000C6EB65163046FFF795FA04460D460AFB49
:100EE0001680FFF78FFADDE90623FFF73FF9064684
:100EF0000F464046FFF786FA02460B463046394613
:100F0000FFF732F90022104BFFF710FC22462B4668
:100F1000FFF72CF904460D460623089ADDE90A017D
:100F2000FFF7D4FE0623099A20462946FFF7CEFE96
:100F30000DB0BDE8F08F00BF54980008C402002037
:100F40005C9800081F85EB5100004E402DE9F041F0
:100F500082B080460D4616461F4600240B9B019327
:100F6000009401A800F086F860F3070400F0F00C8C
:100F7000BCF1300F04D00024204602B0BDE8F0815F
:100F8000C4F3C00388F80030C4F341032B60C4F3FA
:100F9000000434706946019800F058F80446019E38
:100FA00006440196009B1E44324601A9089800F0B1
:100FB00067F80028E0D0019BF31A002BDCDB2B68DC
:100FC000002B07DC019BF61A0A9A1660099A136037
:100FD0000124D1E701A800F045F83880F2E70000CD
:100FE0008446084600238B420CDA30B4064C226853
:100FF000551C256012788CF8002001338342F5DB04
:1010000030BC7047704700BF58030020F0B583B074
:1010100007460D4600240C6001260134042C12DC26
:1010200001210DF10700B84701280CD19DF80730C8
:1010300003F07F022B6806FB02332B60F6019DF95B
:101040000730002BE9DB204603B0F0BD08B5034BA9
:1010500018600348FFF7DAFF08BD00BF58030020FF
:10106000E10F0008036819785A780233036002EB35
:10107000012070470346026812F8010B1A6070479E
:1010800070B505460B68D31A012B03DC0020002342
:101090002B6070BD0C4616460846FFF7E3FF6860FC
:1010A00023681844B04203D8AB6020600120EEE70B
:1010B0000020ECE708B50021034B198040F2B45240
:1010C000024803F0BFFE08BDCA0E0020140900202C
:1010D00008B50021044B1970044B198040F2B4523A
:1010E000034803F0AFFE08BD1209002010090020DC
:1010F0005C03002070B506460C461546FFF728F83D
:1011000082B23146094800F092FC284603F0D6F935
:101110002146074803F04EFF18B1FFF7CBFF002030
:1011200070BDFFF7C7FF0120FAE700BF100F0020D6
:101130005C030020F0B58BB00546194C40273A46B9
:101140000021204603F07EFEA4F144063A46002129
:10115000304603F077FE042304930395231F029384
:1011600006AB019307AB0093A4F14603A4F1480238
:10117000A4F14C01A4F14F00FFF7E8FE089D2A46B8
:101180000999204603F050FE256454F8042C069972
:10119000304603F049FE012304F8503C0BB0F0BD8B
:1011A0007402002010B54B4A13885C1CA4B2148052
:1011B000494A1178494AD154494B9B7CD3B9494992
:1011C000104603F0F7FE034608B1022C2FD0002B87
:1011D0003BD0454C40F2B4524049204603F024FE37
:1011E000FFF768FF4149204603F0E4FE18B33C4B8B
:1011F00000229A743E49394803F0DCFE00282FD0C3
:10120000374B00229A74364B9B7C012B35D0394BDF
:101210001B78012B39D02F4B1A8840F2B3539A42D6
:1012200053D801222C49344800F0C7FD10BD294B8A
:1012300000221A80DEE731492B4803F0BBFE00286C
:10124000D8D0274B01229A74D4E73E21234803F0DB
:1012500090FE0028CED0224B012283F8B820C9E7A7
:1012600027491E4803F0A6FE0028C9D125491B487E
:1012700003F0A0FE0028C3D1C5E7174B1B78302B25
:10128000C5D11C4B01221A70C1E71F490A88531CA3
:101290009BB20B801049087813498854012B03D95D
:1012A000013B4A78934208DC174B1A8840F2B3534B
:1012B0009A42B0D9FFF70CFFADE70846FFF73AFFB7
:1012C000FFF7F8FEFFF704FFEEE7FFF7F3FEFFF787
:1012D000FFFEA6E7CA0E0020C80E00201409002059
:1012E00000020020009900085C030020909800088C
:1012F000AC98000812090020100F0020A0980008E8
:10130000B8980008C09800081009002008B50A48DD
:101310000A4B03604FF4E133436000238360C360F2
:1013200003610C2242618361C36100F051FB00B98B
:1013300008BDFFF71FFCFBE7CC0E00200038014082
:1013400008B50A480A4B03604FF4E13343600023B9
:101350008360C36003610C2242618361C36100F05A
:1013600037FB00B908BDFFF705FCFBE7100F0020B5
:101370000044004008B50A480A4B03604FF4165376
:10138000436000238360C36003610C224261836178
:10139000C36100F01DFB00B908BDFFF7EBFBFBE7E5
:1013A000540F00200048004030B58BB00023069356
:1013B0000793089309930368474A934207D0474A23
:1013C00093422ED0464A93425BD00BB030BD454B82
:1013D0009A6942F480429A619A6902F480420092CA
:1013E000009A9A6942F004029A619B6903F004032F
:1013F0000193019B4FF40073069302230793032389
:101400000993394C06A9204601F0F4F84FF48063A3
:10141000069300230793089306A9204601F0EAF8F3
:10142000D3E7304BDA6942F40032DA61DA6902F468
:1014300000320292029A9A6942F004029A619B6910
:1014400003F004030393039B0423069302230793EF
:1014500003230993244D06A9284601F0CBF808235D
:10146000069300240794089406A9284601F0C2F8C0
:1014700022460521262001F04FFA262001F084FAA9
:10148000A3E7184BDA6942F48022DA61DA6902F4E0
:1014900080220492049A9A6942F008029A619B6938
:1014A00003F008030593059B4FF480630693022322
:1014B0000793032309930D4C06A9204601F09AF8DF
:1014C0004FF40063069300230793089306A9204670
:1014D00001F090F879E700BF003801400044004077
:1014E000004800400010024000080140000C01408C
:1014F000FEE7FEE7FEE7FEE7FEE7704708B50248B5
:1015000000F0ACF808BD00BF980F002008B50248F5
:1015100000F036FB08BD00BF100F002000B583B0FF
:10152000114B9A6942F001029A619A6902F0010234
:101530000092009ADA6942F08052DA61DB6903F0C6
:1015400080530193019B00220F216FF0010001F0F5
:10155000E3F9064A536823F0E06343F000735360F5
:1015600003B05DF804FB00BF001002400000014022
:1015700000B589B001460022192001F0CDF91920EB
:1015800001F002FA144B9A6942F400629A619B6975
:1015900003F400630193019B02A903A800F080FFFC
:1015A00000F06EFF0D4BA3FB00239B0C013B0C488E
:1015B0000C4A026040F2E732C260436000230361DC
:1015C000836000F043F918B1012009B05DF804FB15
:1015D000034800F00BF8F8E70010024083DE1B43DD
:1015E000980F0020002C01407047000090F83D301B
:1015F000DBB2012B27D1022380F83D300268D3688B
:1016000043F00103D3600368114A934210D0B3F151
:10161000804F0DD0A2F59432934209D002F580623A
:10162000934205D01A6842F001021A600020704708
:101630009A6802F00702062A07D01A6842F00102EF
:101640001A6000207047012070470020704700BFDB
:10165000002C0140704770477047704710B5044632
:1016600003681A6912F0020F11D0DA6812F0020F43
:101670000DD06FF002021A610123037703689B69A2
:1016800013F0030F70D0FFF7E6FF002323772368E2
:101690001A6912F0040F12D0DA6812F0040F0ED09B
:1016A0006FF004021A610223237723689B6913F405
:1016B000407F5FD02046FFF7CEFF002323772368CB
:1016C0001A6912F0080F12D0DA6812F0080F0ED063
:1016D0006FF008021A61042323772368DB6913F093
:1016E000030F4ED02046FFF7B6FF00232377236871
:1016F0001A6912F0100F12D0DA6812F0100F0ED023
:101700006FF010021A61082323772368DB6913F452
:10171000407F3DD02046FFF79EFF002323772368BC
:101720001A6912F0010F03D0DA6812F0010F36D1F6
:1017300023681A6912F0800F03D0DA6812F0800F64
:1017400034D123681A6912F0400F03D0DA6812F01E
:10175000400F32D123681A6912F0200F03D0DA68E3
:1017600012F0200F30D110BDFFF774FF2046FFF7B5
:1017700073FF8AE72046FFF76DFF2046FFF76CFFF7
:101780009BE72046FFF766FF2046FFF765FFACE7C3
:101790002046FFF75FFF2046FFF75EFFBDE76FF0D3
:1017A00001021A612046FFF7D9F9C1E76FF0800204
:1017B0001A61204600F077F8C3E76FF040021A6123
:1017C0002046FFF74AFFC5E76FF020021A61204666
:1017D00000F068F8C7E7000003681B4A90420AD08F
:1017E000B0F1804F07D0A2F59432904203D002F5B9
:1017F0008062904203D123F070034A681343124A77
:1018000090420AD0B0F1804F07D0A2F594329042B6
:1018100003D002F58062904203D123F44073CA687A
:10182000134323F080034A69134303608B68C36248
:101830000B688362044B984202D0012343617047D6
:101840000B690363F9E700BF002C014040B310B5FA
:10185000044690F83D30F3B1022384F83D30214630
:1018600051F8040BFFF7B8FF012384F8463084F8E1
:101870003E3084F83F3084F8403084F8413084F8BA
:10188000423084F8433084F8443084F8453084F89A
:101890003D30002010BD80F83C30FFF7A5FEDBE7AF
:1018A00001207047704770470268D36823F4907333
:1018B000D3600268536923F001035361036B012B6A
:1018C00005D0202380F83E30002303637047026870
:1018D000D36823F01003D360F3E790F83D30DBB218
:1018E000212B01D0022070478368B3F5805F17D0A9
:1018F000036A5A1C02621A7803685A60C38C9BB24E
:10190000013B9BB2C3844BB90268D36823F08003C8
:10191000D3600268D36843F04003D360002070476F
:101920000369002BE4D1036A1B880268C3F3080330
:101930005360036A02330362E0E7000010B5044617
:101940000268136923F44053C1680B431361836831
:101950000269134342691A430168CB6823F4B05308
:1019600023F00C031343CB600268536923F44073E4
:1019700081690B4353610268134B9A4220D000F0F7
:101980006FFD024602EB820202EB820263689B005B
:10199000B2FBF3F20D48A0FB02314909642303FBBB
:1019A00011231B013233A0FB03235B0903F0F00278
:1019B00002EB011203F00F03216813448B6010BD8A
:1019C00000F05EFD0246DDE7003801401F85EB5167
:1019D00058B310B5044690F83D300BB3242384F877
:1019E0003D302268D36823F40053D3602046FFF7CC
:1019F000A5FF2268136923F4904313612268536999
:101A000023F02A0353612268D36843F40053D36060
:101A100000202064202384F83D3084F83E3010BD3F
:101A200080F83C30FFF7C0FCD8E70120704790F801
:101A30003D30DBB2202B19D1D1B1DAB190F83C3076
:101A4000012B19D0012380F83C3001628284C284CA
:101A500000230364212280F83D2080F83C30016897
:101A6000CA6842F08002CA60184670470220704778
:101A7000012070470120704702207047704708B569
:101A80000168CA6822F04002CA60202280F83D2026
:101A9000FFF7F4FF002008BD704708B5406A002337
:101AA000C385C384FFF7F8FF08BD704790F83E3048
:101AB000DBB2222B60D18368B3F5805F46D0826AA7
:101AC000B3F5805F04D0002B4DD10369002B4AD1C0
:101AD00003685B681370836A01338362C38D9BB2B2
:101AE000013B9BB2C385002B48D100B583B002688F
:101AF000D36823F02003D3600268D36823F4807393
:101B0000D3600268536923F001035361202380F8F6
:101B10003E30036B012B2CD1002303630268D36892
:101B200023F01003D36003681A6812F0100F06D078
:101B3000002201921A6801925B680193019B818DDA
:101B4000FFF7B3FF002003B05DF804FB0269002A31
:101B5000B5D1826A03685B68C3F308031380836AA4
:101B600002338362BAE703685B6803F07F03137094
:101B7000B1E7FEF7E1FFE5E702207047002070477C
:101B800030B583B0044602681368D068516913F019
:101B90000F0505D113F0200F02D010F0200F19D13E
:101BA0002DB111F0010119D110F4907F16D1216BE4
:101BB000012975D013F0800F03D010F0800F40F092
:101BC000D78013F0400F03D010F0400F40F0D480C6
:101BD00003B030BD2046FFF769FFF9E713F0010FAE
:101BE00006D010F4807F03D0226C42F00102226400
:101BF00013F0040F04D019B1226C42F002022264E7
:101C000013F0020F04D019B1226C42F004022264D6
:101C100013F0080F07D010F0200F00D119B1226C7B
:101C200042F008022264226C002AD1D013F0200F67
:101C300002D010F0200F21D123685B6903F040032C
:101C4000226C12F0080F00D123B32046FFF72CFEC0
:101C500023685A6912F0400F18D05A6922F04002E6
:101C60005A61A36B73B1464A5A63A06B00F0F6FD4C
:101C70000028ADD0A06B436B9847A9E72046FFF73B
:101C800015FFD9E72046FFF707FFA1E72046FFF73A
:101C900003FF9DE72046FFF7FFFE0023236497E73D
:101CA00013F0100F86D010F0100F83D00023019393
:101CB0001368019353680193019B536913F0400F1C
:101CC00032D0A16B0B685B689BB2002B80D0A08DDB
:101CD00098427FF67DAFE3858B69202B08D1A18DDB
:101CE000E38D9BB2C91A89B22046FFF7DEFE6FE78B
:101CF000D36823F48073D3602268536923F001030F
:101D000053612268536923F040035361202384F810
:101D10003E30002323632268D36823F01003D3608E
:101D2000A06B00F079FDDAE7A18DE38D9BB2C91AB3
:101D300089B2E38D9BB2002B3FF44AAF00293FF4F8
:101D400047AFD36823F49073D3602268536923F0BC
:101D500001035361202384F83E300023236322686B
:101D6000D36823F01003D3602046FFF79EFE2FE7D1
:101D70002046FFF7B2FD2BE72046FFF780FE27E75E
:101D80009B1A0008034681628285C2850020186480
:101D9000222283F83E2083F83C001968CA6842F486
:101DA0008072CA6019684A6942F001024A611A6881
:101DB000D36843F02003D360704708B590F83E30F5
:101DC000DBB2202B0DD171B17AB190F83C30012BF0
:101DD0000DD0012380F83C3000230363FFF7D2FFCE
:101DE00000E0022008BD0120FCE70120FAE7022004
:101DF000F8E7000008B5074A136843F010031360C2
:101E0000032000F077FD0F20FFF7B2FBFFF786FB02
:101E1000002008BD00200240034A1168034B1B78D4
:101E20000B441360704700BFE00F0020000000204B
:101E3000014B1868704700BFE00F002082B0084BCC
:101E40001B68084AA2FB03235B0A00FB03F3019310
:101E500000BF019B5A1E0192002BF9D102B07047BE
:101E600008000020D34D6210002800F0F18170B509
:101E700082B00446036813F0010F2CD0994B5B68C5
:101E800003F00C03042B1DD0964B5B6803F00C038E
:101E9000082B12D06368B3F5803F41D0002B55D199
:101EA00003F1804303F504331A6822F480321A6088
:101EB0001A6822F480221A6037E08A4B5B6813F4B8
:101EC000803FE7D0874B1B6813F4003F03D0636863
:101ED000002B00F0BF81236813F0020F75D0814BF7
:101EE0005B6813F00C0F5FD07E4B5B6803F00C0354
:101EF000082B54D02369002B00F08A807A4B0122F2
:101F00001A60FFF795FF0546764B1B6813F0020F2A
:101F100075D1FFF78DFF401B0228F5D903209EE104
:101F2000704A136843F480331360636843B3FFF768
:101F30007FFF05466B4B1B6813F4003FCBD1FFF7C7
:101F400077FF401B6428F5D9032088E1B3F5A02F63
:101F500009D0644B1A6822F480321A601A6822F49D
:101F600080221A60E1E703F18043A3F53C331A684D
:101F700042F480221A601A6842F480321A60D4E770
:101F8000FFF756FF0546574B1B6813F4003FA2D0DE
:101F9000FFF74EFF401B6428F5D903205FE1514B4A
:101FA0005B6813F4803FA5D14E4B1B6813F0020F02
:101FB00003D02369012B40F04F814A4A136823F074
:101FC000F803616943EAC1031360236813F0080F43
:101FD00033D0A369002B5CD0434B0122C3F880248B
:101FE000FFF726FF05463F4B5B6A13F0020F21D136
:101FF000FFF71EFF401B0228F5D903202FE1394AC5
:10200000136823F0F803616943EAC1031360DCE756
:10201000354B00221A60FFF70BFF0546314B1B685A
:1020200013F0020FD1D0FFF703FF401B0228F5D9B0
:10203000032014E10120FFF701FF236813F0040FD0
:1020400000F09680274BDB6913F0805F34D1254B7D
:10205000DA6942F08052DA61DB6903F08053019360
:10206000019B0125214B1B6813F4807F26D0E36878
:10207000012B3DD0002B53D103F1804303F50433F2
:102080001A6A22F001021A621A6A22F004021A6223
:1020900033E0154B0022C3F88024FFF7C9FE054644
:1020A000104B5B6A13F0020FC7D0FFF7C1FE401B55
:1020B0000228F5D90320D2E00025D3E70B4A1368A4
:1020C00043F480731360FFF7B3FE0646074B1B68AB
:1020D00013F4807FCBD1FFF7ABFE801B6428F5D9CA
:1020E0000320BCE0001002400000424200700040AB
:1020F0005F4A136A43F001031362E36833B3FFF7E7
:1021000097FE06465A4B1B6A13F0020F2FD1FFF7BA
:102110008FFE801B41F288339842F3D903209EE062
:10212000052B09D0524B1A6A22F001021A621A6A70
:1021300022F004021A62E0E74D4B1A6A42F00402F0
:102140001A621A6A42F001021A62D6E7FFF770FEBD
:102150000646474B1B6A13F0020F08D0FFF768FED4
:10216000801B41F288339842F3D9032077E0E5B928
:10217000E369002B72D03E4A526802F00C02082A32
:1021800056D0022B17D03B4B00221A66FFF750FEA9
:102190000446374B1B6813F0007F47D0FFF748FE1B
:1021A000001B0228F5D9032059E0314AD36923F0F6
:1021B0008053D361DCE72F4B00221A66FFF738FE0D
:1021C00005462B4B1B6813F0007F06D0FFF730FE4F
:1021D000401B0228F5D9032041E0236AB3F5803F74
:1021E0001AD023494B6823F47413226A606A0243AD
:1021F00013434B601F4B01221A66FFF719FE04467A
:102200001B4B1B6813F0007F0ED1FFF711FE001B64
:102210000228F5D9032022E0154A536823F400333D
:10222000A1680B435360DCE7002018E0002016E0B3
:10223000012B16D00E4B5B6803F48031226A914269
:1022400011D103F47013626A93420ED1002006E0AC
:1022500001207047012002E0012000E0002002B0D0
:1022600070BD0120FBE70120F9E70120F7E700BF7F
:10227000001002400000424286B0174B0FCB0DF118
:10228000180C0CE90F0040F20123ADF80430134B99
:102290005B6803F00C02082A02D0114806B07047B0
:1022A000C3F3834218326A4412F8100C13F4803FCF
:1022B0000DD00A4B5B68C3F3404318336B4413F8EB
:1022C000143C074A02FB00F0B0FBF3F0E6E7054BD5
:1022D00003FB00F0E2E700BFC898000800100240CE
:1022E00000127A0000093D00002800F0A08070B5BF
:1022F0000D460446524B1B6803F007038B420BD27A
:102300004F4A136823F007030B431360136803F06D
:1023100007038B4240F08D80236813F0020F17D023
:1023200013F0040F04D0474A536843F4E06353604A
:10233000236813F0080F04D0424A536843F46053F3
:102340005360404A536823F0F003A1680B43536085
:10235000236813F0010F31D06368012B20D0022BCA
:1023600025D0384A126812F0020F64D035494A6805
:1023700022F0030213434B60FFF75AFD0646314B30
:102380005B6803F00C036268B3EB820F16D0FFF7B3
:102390004FFD801B41F288339842F0D9032045E07D
:1023A000284A126812F4003FE0D101203EE0254A9D
:1023B000126812F0007FD9D1012037E0204B1B6852
:1023C00003F00703AB420AD91D4A136823F0070341
:1023D0002B431360136803F00703AB422DD123682E
:1023E00013F0040F06D0174A536823F4E063E16842
:1023F0000B435360236813F0080F07D0114A53684A
:1024000023F46053216943EAC1035360FFF734FFAB
:102410000C4B5B68C3F303130B4AD35CD8400B4BE4
:1024200018600B4B1868FFF7A3F8002070BD01205F
:1024300070470120FAE70120F8E70120F6E700BF26
:102440000020024000100240DC9800080800002034
:1024500004000020014B1868704700BF08000020EE
:1024600008B5FFF7F7FF044B5B68C3F30223034A89
:10247000D35CD84008BD00BF00100240EC980008B3
:1024800008B5FFF7E7FF044B5B68C3F3C223034AB9
:10249000D35CD84008BD00BF00100240EC98000893
:1024A0000F2303600B4B5A6802F0030242605A6824
:1024B00002F0F00282605A6802F4E062C2605B6877
:1024C000DB0803F4E0630361034B1B6803F00703BD
:1024D0000B607047001002400020024070B582B0CF
:1024E0000446036813F0010F36D03F4BDB6913F04D
:1024F000805F49D13C4BDA6942F08052DA61DB6996
:1025000003F080530193019B0125384B1B6813F4A2
:10251000807F3BD0344B1B6A13F4407313D0626846
:1025200002F440729A420ED02F4A136A23F440708C
:102530002F490126C1F840640026C1F840641062AA
:1025400013F0010F36D1284A136A23F440736168EF
:102550000B431362002D3ED1236813F0020F06D007
:10256000214A536823F44043A1680B435360236816
:1025700013F0100F34D01C4A536823F48003E16831
:102580000B43536000202CE00025BEE7174A136878
:1025900043F480731360FFF74BFC0646134B1B6834
:1025A00013F4807FB6D1FFF743FC801B6428F5D974
:1025B000032016E0FFF73CFC06460B4B1B6A13F0AA
:1025C000020FC0D1FFF734FC801B41F288339842E0
:1025D000F3D9032005E0D36923F08053D361BBE72F
:1025E000002002B070BD00BF00100240007000402B
:1025F0000000424270B582B00024A446A6E0804D9F
:10260000AA4210D007D97F4DAA420CD005F58035DB
:10261000AA4208D013E0A5F58015AA4203D005F51B
:102620007025AA4207D18A68002A58D0012A51D0C1
:102630004361082403E0A5F58015AA42F3D0BEF15A
:10264000FF0F4ED80646BEF1FF0F4CD84FEA8C0262
:1026500033680F25954023EA050304FA02F2134379
:1026600033604B6813F0805F6ED0674B9A6942F01D
:1026700001029A619B6903F001030193019B4FEAF8
:102680009C02951C614B53F825600CF003039D00E0
:102690000F23AB4026EA03065D4B984229D003F591
:1026A0008063984200F08E8003F58063984200F0CA
:1026B0008B8003F58063984219D004231AE0CC681C
:1026C000BDE7CC680434BAE7CC680834B7E7CC6817
:1026D0000C34B4E703610824B1E70024AFE7042415
:1026E000ADE7061DAFE7ACF108029200B0E70323A7
:1026F00000E00023AB4033430232444D45F8223022
:102700004B6813F4803F61D0424A136843EA0E03DA
:1027100013604B6813F4003F5ED03E4A536843EAAF
:102720000E0353604B6813F4801F5BD0394A9368E3
:1027300043EA0E0393604B6813F4001F58D0354AE8
:10274000D36843EA0E03D3600CF1010C0A6832FA35
:102750000CF353D0012303FA0CF302EA030E33EA1D
:102760000202F1D14A68122A3FF649AF122A3FF617
:1027700066AF01A555F822F027260008BF260008FD
:10278000C9260008DB2600083F2600083F2600086F
:102790003F2600083F2600083F2600083F26000885
:1027A0003F2600083F2600083F2600083F26000875
:1027B0003F2600083F2600083F260008C3260008E1
:1027C000CF260008012395E7022393E7114A1368F7
:1027D00023EA0E0313609CE70E4A536823EA0E03B4
:1027E00053609FE70B4A936823EA0E039360A2E7C6
:1027F000084AD36823EA0E03D360A5E702B070BD90
:1028000000002210000031100010024000000140C2
:10281000000801400004014090F82130022B06D04E
:1028200004238363002380F820300120704702686E
:10283000136823F00E0313600268136823F001038A
:102840001360036CC16B012202FA03F34B6080F842
:102850002120002380F820301846704708B590F8F2
:102860002130022B03D004238363012008BD0268BA
:10287000136823F00E0313600268136823F001034A
:1028800013600368194A934214D0143293421FD044
:10289000143293421ED0143293421ED0143293420B
:1028A0001ED01432934202D04FF0807203E04FF4F6
:1028B000801200E001220E4B5A60012380F8213083
:1028C000002380F82030436B6BB198470020CDE7A0
:1028D0001022F0E74FF48072EDE74FF48052EAE700
:1028E0004FF48032E7E70020C0E700BF0800024055
:1028F00000000240074AD36823F4E0631B041B0C6A
:10290000000200F4E060034343F0BF6343F400338C
:10291000D360704700ED00E000B5194BDB68C3F3EE
:102920000223C3F1070CBCF1040F28BF4FF0040CC5
:1029300003F1040EBEF1060F18D9033B4FF0FF3E22
:102940000EFA0CFC21EA0C0199400EFA03F322EA7C
:102950000303194300280BDB0901C9B200F16040F1
:1029600000F5614080F800135DF804FB0023E5E703
:1029700000F00F000901C9B2024B1954F4E700BF7F
:1029800000ED00E014ED00E0002807DB00F01F027E
:10299000400901239340024A42F82030704700BFAB
:1029A00000E100E07047000000B591B000240394FE
:1029B0002E22214604A802F045FAADF808401A2359
:1029C0008DF80830134A144903A802F043FA012194
:1029D000009100230A461148006800F0BDF8104B32
:1029E000186010F0010FF2D002210C4B186800F0B3
:1029F00037F90C4B186801F0FDF84FF4FA620A49F8
:102A00000A48FEF777FB4FF4FA62094903A8FEF77C
:102A100071FBDCE7F80F0020F4980008E80F0020B5
:102A2000E40F0020EC0F0020049900080C99000826
:102A30001899000800B58BB00023069307930893FC
:102A4000CDF82330029303930493CDF81330012281
:102A50000092002302210F48006800F07DF80E4B21
:102A6000186010F0020FF2D0FEF7B0F9024602A98A
:102A700006A8FEF7CBF90023012206A90748006843
:102A800000F0DCFA0023012202A90548006800F0EA
:102A9000D5FADCE7E80F0020E40F0020F00F00205B
:102AA000F40F002010B582B0144B1B68019305246D
:102AB0000094002380221249124800F093FE124B2A
:102AC0001B6801930094002380221049104800F0F5
:102AD00089FE00F033F80F4B18600022012114200A
:102AE00000F085FA0C4B186000220121142000F040
:102AF0007EFA0A4B186002B010BD00BF081000201B
:102B00001C990008A9290008EC0F00202C99000846
:102B1000352A0008E80F0020F00F0020F40F0020F5
:102B20001AB9084206D11046704731EA000303D0B3
:102B300000207047012070470120704738B52020E1
:102B400001F058FD044628B1002540F8045B00F070
:102B5000CDF82577204638BD2DE9F84378B10C46ED
:102B600016461D46074611F07F4811D04FF050031E
:102B700083F31188BFF36F8FBFF34F8FFEE74FF0E2
:102B8000500383F31188BFF36F8FBFF34F8FFEE7BE
:102B900041B94FF0500383F31188BFF36F8FBFF338
:102BA0004F8FFEE701F0C6F950B9089B43B14FF0D3
:102BB000500383F31188BFF36F8FBFF34F8FFEE78E
:102BC00000F092FED7F800902A4621464846FFF7CB
:102BD000A7FFF0B116B129EA04033B6000F01EFF25
:102BE000B8F1000F12D048B94FF0E0234FF08052F7
:102BF000C3F8042DBFF34F8FBFF36F8F01F0F2F9CD
:102C0000814610F0007F1AD029F07F494846BDE880
:102C1000F883089B83B166B941460DB141F08061EC
:102C2000089A2143381D01F05FF8C146DDF8208085
:102C3000D4E74FF08071F0E7DDF82080CEE701F0B7
:102C4000E1FDD7F800902A4621464846FFF768FF85
:102C500018B116B129EA04043C6001F0F5FDD3E790
:102C6000F8B568B10D46044611F07F4711D04FF01A
:102C7000500383F31188BFF36F8FBFF34F8FFEE7CD
:102C80004FF0500383F31188BFF36F8FBFF34F8F63
:102C9000FEE700F10C0600F027FE206923682B43B5
:102CA00023600AE0216832EA010105D111E02168C0
:102CB00041F0007101F0A6F82846B0420ED04568F8
:102CC000036823F07F4213F0806FEBD1216811423B
:102CD000F2D013F0807FEAD01743E8E7236823EAB5
:102CE0000703236000F09AFE2068F8BD00F1080396
:102CF00043604FF0FF328260C360036100230360D2
:102D0000704700230361704743684B609A688A608C
:102D1000516099600861036801330360704730B403
:102D20000D68B5F1FF3F11D000F108031C465B6848
:102D30001A68AA42FAD963684B6099608C60616036
:102D4000086103680133036030BC70470469F2E72F
:102D50000369416882688A60416851605A688242AA
:102D600006D0002202611A68013A1A60186870479A
:102D700082685A60F5E710B5044601F043FDA26B86
:102D8000E36B9A4204D0002401F05EFD204610BDA2
:102D90000124F9E710B5044601F034FDA36B23B913
:102DA000012401F051FD204610BD0024F9E770B563
:102DB00004461546866B026C5AB903681BB10020A5
:102DC0000136A66370BD406801F0C4F8002363605B
:102DD000F6E76DB9806802F027F8226CA368134407
:102DE000A3606268934219D32368A3602846E7E78B
:102DF000C06802F019F8226C5142E3689B1AE36044
:102E00002268934202D263680B44E360022D01D032
:102E10000020D5E726B1013E0020D1E72846CFE7C4
:102E20000020CDE708B50346026C62B10846D968B8
:102E30001144D960D3F804C0614501D31968D96041
:102E4000D96801F0F1FF08BD38B5054601F0DAFC9C
:102E500095F8454064B201E0013C64B2002C0ADD03
:102E60006B6A43B105F1240000F086FF0028F3D01F
:102E700001F05AF8F0E7FF2385F8453001F0E4FC53
:102E800001F0C0FC95F8444064B201E0013C64B23A
:102E9000002C0ADD2B6943B105F1100000F06CFF36
:102EA0000028F3D001F040F8F0E7FF2385F8443024
:102EB00001F0CAFC38BD38B5E0B10D46044601F05A
:102EC000A1FC2368E26B216C01FB023060600020F2
:102ED000A063A360013A02FB0133E360FF2384F89F
:102EE000443084F84530FDB9236963B901F0ACFC86
:102EF000012038BD4FF0500383F31188BFF36F8F6B
:102F0000BFF34F8FFEE704F1100000F035FF0028FB
:102F1000ECD04FF0E0234FF08052C3F8042DBFF304
:102F20004F8FBFF36F8FE1E704F11000FFF7DEFE74
:102F300004F12400FFF7DAFED8E738B51D46049CFB
:102F40000B4649B92460E063236401212046FFF762
:102F5000B2FF84F84C5038BD2260F4E740B94FF01E
:102F6000500383F31188BFF36F8FBFF34F8FFEE7DA
:102F700010B584B01C46844653B192B189B94FF064
:102F8000500383F31188BFF36F8FBFF34F8FFEE7BA
:102F90004FF0500383F31188BFF36F8FBFF34F8F50
:102FA000FEE76AB150230393039B502B13D04FF0DD
:102FB000500383F31188BFF36F8FBFF34F8FFEE78A
:102FC0000029EFD04FF0500383F31188BFF36F8FC8
:102FD000BFF34F8FFEE7012384F8463000949DF83D
:102FE00018306046FFF7A9FF204604B010BD40B975
:102FF0004FF0500383F31188BFF36F8FBFF34F8FF0
:10300000FEE7F0B583B00C4615460746A1B101FBBB
:1030100000F0503001F0EEFA064650B1002380F87F
:10302000463000902B4600F1500221463846FFF70B
:1030300084FF304603B0F0BD0846EAE7F0B585B03E
:10304000019288B10F461D460446B1B1022D20D130
:10305000E36B012B1DD04FF0500383F31188BFF3B6
:103060006F8FBFF34F8FFEE74FF0500383F311884C
:10307000BFF36F8FBFF34F8FFEE7036C002BE5D0DC
:103080004FF0500383F31188BFF36F8FBFF34F8F5F
:10309000FEE700F04FFF064658B9019B002B48D0D1
:1030A0004FF0500383F31188BFF36F8FBFF34F8F3F
:1030B000FEE700263DE02A4639462046FFF777FE28
:1030C000636A7BB948B14FF0E0234FF08052C3F8F8
:1030D000042DBFF34F8FBFF36F8F01F0B5FB0120BD
:1030E00005B0F0BD04F1240000F046FE0028F4D045
:1030F0004FF0E0234FF08052C3F8042DBFF34F8F01
:10310000BFF36F8FE9E701F09FFB0020E8E702A81B
:1031100000F0BCFE012619E0002384F8443021E0D1
:10312000002384F8453023E02046FFF78DFE00F0B1
:1031300075FC01F067FBA26BE36B9A42BBD3022DD7
:10314000B9D0019B002BDED0002EE0D001F07CFB3B
:1031500000F0CAFB01F056FB94F8442052B2B2F1E1
:10316000FF3FD9D094F8452052B2B2F1FF3FD7D0FB
:1031700001F06AFB01A902A800F094FED8B920462C
:10318000FFF7F9FD0028CFD0019904F1100000F0FD
:1031900093FD2046FFF758FE00F040FC0028C8D100
:1031A0004FF0E0234FF08052C3F8042DBFF34F8F50
:1031B000BFF36F8FBDE72046FFF746FE00F02EFC01
:1031C00000208DE72DE9F84390B10F4616461C46C6
:1031D0000546B1B1022C20D1EB6B012B1DD04FF075
:1031E000500383F31188BFF36F8FBFF34F8FFEE758
:1031F0004FF0500383F31188BFF36F8FBFF34F8FEE
:10320000FEE7036C002BE5D04FF0500383F31188E9
:10321000BFF36F8FBFF34F8FFEE701F0DDFBEFF3DE
:1032200011894FF0500383F31188BFF36F8FBFF301
:103230004F8FAA6BEB6B9A4206D3022C04D000206E
:1032400089F31188BDE8F88395F845804FFA88F82E
:10325000224639462846FFF7AAFDB8F1FF3F06D0BF
:1032600008F101035BB285F845300120E8E76B6A9D
:103270000BB90120E4E705F1240000F07DFD18B151
:1032800026B101203060DBE70120D9E70120D7E734
:10329000F0B585B0019290B10F460446C1B100F07F
:1032A00049FE064600BB019B002B5ED04FF0500349
:1032B00083F31188BFF36F8FBFF34F8FFEE74FF09B
:1032C000500383F31188BFF36F8FBFF34F8FFEE777
:1032D000036C002BE3D04FF0500383F31188BFF34E
:1032E0006F8FBFF34F8FFEE700263EE03946204642
:1032F000FFF798FD013DA563236923B901F0A4FA06
:10330000012005B0F0BD04F1100000F035FD0028EB
:10331000F4D04FF0E0234FF08052C3F8042DBFF3F8
:103320004F8FBFF36F8FE9E701F08EFA0020E8E7D7
:1033300002A800F0ABFD012621E0002384F8443010
:1033400029E0002384F845302BE02046FFF77CFD80
:1033500000F064FB09E02046FFF776FD00F05EFB1D
:103360002046FFF717FD00283FD101F04BFAA56B6F
:10337000002DBBD1019B002BD6D0002ED8D001F060
:1033800063FA00F0B1FA01F03DFA94F844305BB210
:10339000B3F1FF3FD1D094F845305BB2B3F1FF3FBA
:1033A000CFD001F051FA01A902A800F07BFD00285E
:1033B000D1D12046FFF7EEFC0028C6D0019904F1D8
:1033C000240000F079FC2046FFF73EFD00F026FBCC
:1033D0000028CAD14FF0E0234FF08052C3F8042DEB
:1033E000BFF34F8FBFF36F8FBFE7002089E7000067
:1033F0000023072B0CD8074A52F833200AB10133B7
:10340000F7E7044A42F8331002EBC30358607047F1
:10341000704700BF0C10002070B504460D461646DC
:1034200001F0F0F994F844305BB2B3F1FF3F0DD0F6
:1034300094F845305BB2B3F1FF3F0BD001F004FAD2
:10344000A36B5BB12046FFF7FFFC70BD002384F83F
:103450004430EDE7002384F84530EFE73246294653
:1034600004F1240000F06CFCECE70000084B1B6842
:103470001B6823B9074B4FF0FF321A607047044BAB
:103480001B68DB68DB685A68024B1A60704700BF34
:1034900050100020FC1400202DE9F04780460D4616
:1034A00017469946089EDDF824A00A9C9200A521A3
:1034B000206B01F0C7FC236B07F18042013A03EB5C
:1034C000820727F007074FF0000CBCF10F0F0BD855
:1034D00015F80C2004EB0C0383F8342015F80C309D
:1034E00013B10CF1010CF0E7002384F84330372EC0
:1034F00000D93726E662E66400252565201DFFF722
:1035000000FC04F11800FFF7FCFB2461C6F138064B
:10351000A6616462656584F858504A46414638465B
:1035200001F048F92060BAF1000F01D0CAF800405C
:10353000BDE8F08738B5002407E004EB840293006F
:103540000E481844FFF7D2FB0134372CF5D90C4D47
:103550002846FFF7CBFB0B4C2046FFF7C7FB0A487A
:10356000FFF7C4FB0948FFF7C1FB0948FFF7BEFBA3
:10357000084B1D60084B1C6038BD00BF5810002070
:10358000D0140020E4140020041500203015002081
:103590001C150020501000205410002010B50446C7
:1035A00001F030F9224A136801331360214B1B6884
:1035B0005BB1214B1B686BB91E4B1B68DA6AE36A6F
:1035C0009A4207D81B4B1C6004E01A4B1C6013681E
:1035D000012B29D0194A1368013313606364E06A30
:1035E000174B1B68984201D9154B186000EB8000FF
:1035F000211D144B03EB8000FFF786FB01F024F93B
:103600000D4B1B687BB10B4B1B68DA6AE36A9A426D
:1036100009D24FF0E0234FF08052C3F8042DBFF3DE
:103620004F8FBFF36F8F10BDFFF784FFD2E700BF4E
:10363000B81400204C10002018150020C8140020D9
:10364000CC1400205810002010B5044690F85930D2
:1036500063B1012B11D0022B0ED04FF0500383F336
:103660001188BFF36F8FBFF34F8FFEE7006B01F040
:1036700039F8204601F036F810BD01F033F8FBE7C9
:103680000F4B1B68D3B110B501F0BCF80D4BDB68D4
:10369000DC68201DFFF75CFB0B4A1368013B1360DD
:1036A000074A1368013B136001F0CEF82046FFF78C
:1036B000CBFF034B1B68002BE6D110BD704700BF4A
:1036C000BC14002030150020B814002008B5FFF706
:1036D000D7FF074B1B68012BF9D94FF0E0234FF0C0
:1036E0008052C3F8042DBFF34F8FBFF36F8FEEE707
:1036F0005810002070B504460D46174B1E68174B36
:1037000018680430FFF724FBB4F1FF3F0DD03444B8
:10371000124B1B685C60A64210D9114B18680F4B06
:1037200019680431FFF7FBFA70BD002DEFD00B4B89
:10373000196804310B48FFF7E7FAF5E70A4B1868F8
:10374000064B19680431FFF7EAFA084B1B68A342DD
:10375000EAD9064B1C60E7E7441500204C10002016
:10376000541000201C15002050100020FC140020D4
:1037700030B587B00B9C7CB10C9DB5B15C25049530
:10378000049D5C2D1AD04FF0500383F31188BFF3D2
:103790006F8FBFF34F8FFEE74FF0500383F3118815
:1037A000BFF36F8FBFF34F8FFEE74FF0500383F3EC
:1037B0001188BFF36F8FBFF34F8FFEE70C9D2C6313
:1037C000022485F8594000240394029505AC019425
:1037D0000A9C0094FFF760FE0C98FFF7DFFE059847
:1037E00007B030BD2DE9F04385B007468846144642
:1037F0001E46900000F0FEFE00B381465C2000F003
:10380000F9FE0546B0B1C0F83090E5B1002385F867
:103810005930039302950D9B01930C9B0093334603
:10382000224641463846FFF737FE2846FFF7B6FEE8
:10383000012005E0484600F055FFE6E74FF0FF3075
:1038400005B0BDE8F0834FF0FF30F9E710B588B060
:1038500000240594069407AA06A905A800F050FEC6
:10386000059B0293069B019300942346079A1849EF
:103870001848FFF77DFF184B186040B100F02AFC94
:10388000012806D0B0F1FF3F18D008B010BD0020CD
:10389000F6E74FF0500383F31188BFF36F8FBFF348
:1038A0004F8F0E4B4FF0FF321A600D4B01221A6002
:1038B0000C4B00221A6001F02FF8E6E74FF050039E
:1038C00083F31188BFF36F8FBFF34F8FFEE700BF05
:1038D0003C990008CD360008F8140020FC140020A4
:1038E0001815002044150020024A136801331360A4
:1038F000704700BFC4140020014B1868704700BF18
:1039000044150020F8B53A4B1B68002B64D1394BA5
:103910001D6801351D60C5B9374B1B681B6843B175
:103920004FF0500383F31188BFF36F8FBFF34F8FB6
:10393000FEE7314A1168314B186810601960304A4F
:10394000136801331360FFF791FD2E4B1B68AB42E8
:1039500038D900272C4B1B68DB6A03EB83039A00E2
:103960002A4B9B58012B3CD901273AE00127224BD7
:103970001B681B6843B3204B1B68DB68DC6863680B
:103980009D4226D3261D3046FFF7E2F9A36A1BB1FC
:1039900004F11800FFF7DCF9E36A1D4A126893424C
:1039A00001D91B4A136003EB83039A003146174881
:1039B0001044FFF7A9F9E26A134B1B68DB6A9A42CD
:1039C000D4D2D4E70027D2E70E4B4FF0FF321A6073
:1039D000C0E70C4A1360BDE70E4A13680133136059
:1039E00000270D4B1B6803B101273846F8BD00BF07
:1039F000C414002044150020501000205410002052
:103A000000150020FC1400204C100020581000204D
:103A1000CC140020C01400204815002038B5354BC8
:103A20001B6843B94FF0500383F31188BFF36F8FC6
:103A3000BFF34F8FFEE700F0E5FE2E4B1A68013A08
:103A40001A601B68002B4FD12B4B1B680BB900244D
:103A50004BE00024294B1B681BB3284BDB68DC6858
:103A600004F11800FFF774F9251D2846FFF770F9D7
:103A7000E06A234B1B68984201D9214B186000EB88
:103A8000800029461F4B03EB8000FFF73DF9E26AF7
:103A90001D4B1B68DB6A9A42DCD31C4B01221A6067
:103AA000D8E70CB1FFF7E2FC194B1C6884B9174B3F
:103AB0001C68D4B14FF0E0234FF08052C3F8042DBE
:103AC000BFF34F8FBFF36F8F01240EE0013C07D08F
:103AD000FFF718FF0028F9D00C4B01221A60F5E718
:103AE0000B4B00221A60E2E7002400F0ADFE2046F6
:103AF00038BD00BFC4140020B814002004150020F5
:103B0000CC140020581000204C1000204815002034
:103B1000C014002010B5A8B10446104B1B6843B177
:103B20004FF0500383F31188BFF36F8FBFF34F8FB4
:103B3000FEE7FFF7D9FE00212046FFF7DBFDFFF788
:103B40006DFF48B94FF0E0234FF08052C3F8042DC9
:103B5000BFF34F8FBFF36F8F10BD00BFC4140020A1
:103B60001F4B1B681BB11F4B01221A6070471D4B76
:103B700000221A601C4B1B6803EB83018A001B495F
:103B80008A585AB90BB1013BF6E74FF0500383F363
:103B90001188BFF36F8FBFF34F8FFEE703EB8300F6
:103BA00082000A4450684068506003EB830C4FEA7F
:103BB0008C020832114488420BD003EB830291003F
:103BC0000A4A0A445268D168094A1160064A1360D9
:103BD0007047406862469100044A0A445060ECE72E
:103BE000C414002048150020CC14002058100020D8
:103BF0004C10002038B5044600F004FEE4B1251D49
:103C00002846FFF7A5F8A36A1BB104F11800FFF7D7
:103C10009FF829462348FFF777F894F85830DBB22D
:103C2000012B0CD000F010FE1F4B1B685BB91F4B23
:103C30001B68A3420ED038BD1C4B1C68DFE7002375
:103C400084F85830EEE700F0DDFDFFF70FFC00F0E0
:103C5000FBFDECE7144B1B68B3B1154B1B6843B17C
:103C60004FF0500383F31188BFF36F8FBFF34F8F73
:103C7000FEE74FF0E0234FF08052C3F8042DBFF36E
:103C80004F8FBFF36F8FD6E7064B1A68094B1B683F
:103C90009A4203D1054B00221A60CCE7FFF760FF80
:103CA000C9E700BF1C150020181500204C1000208B
:103CB000C4140020B814002058B110B50C46094AAD
:103CC00011681831FFF72BF801212046FFF712FD8C
:103CD00010BD4FF0500383F31188BFF36F8FBFF314
:103CE0004F8FFEE74C10002070B110B5144602460D
:103CF000114B1B688BB94FF0500383F31188BFF34E
:103D00006F8FBFF34F8FFEE74FF0500383F311889F
:103D1000BFF36F8FBFF34F8FFEE7084B186841F07A
:103D200000418161196818311046FEF7EDFF01214D
:103D30002046FFF7DFFC10BDC41400204C1000200B
:103D400038B570B10D4614460A4A11681831FEF7AD
:103D5000DBFF0CB14FF0FF3521462846FFF7CAFCC8
:103D600038BD4FF0500383F31188BFF36F8FBFF35B
:103D70004F8FFEE74C10002038B5C368DC6824B3D1
:103D800004F118052846FEF7E3FF184B1B682BBB10
:103D9000251D2846FEF7DCFFE06A154B1B6898429C
:103DA00001D9134B186000EB80002946114B03EB3F
:103DB0008000FEF7A9FFE26A0F4B1B68DB6A9A429C
:103DC00011D901200D4B186038BD4FF0500383F31B
:103DD0001188BFF36F8FBFF34F8FFEE72946084866
:103DE000FEF792FFE7E70020EEE700BFC4140020D3
:103DF000CC140020581000204C1000204815002042
:103E00000415002038B51C4B1B6843B94FF0500314
:103E100083F31188BFF36F8FBFF34F8FFEE741F03D
:103E200000410160C468F4B1FEF792FF251D2846E9
:103E3000FEF78EFFE06A114B1B68984201D90F4BC9
:103E4000186000EB800029460D4B03EB8000FEF765
:103E50005BFFE26A0B4B1B68DB6A9A4202D90A4B92
:103E600001221A6038BD4FF0500383F31188BFF36D
:103E70006F8FBFF34F8FFEE7C4140020CC140020D7
:103E8000581000204C10002048150020034B1B68E0
:103E90000360034B1B684360704700BF00150020A0
:103EA00044150020D8B170B50C46054601B300F0AA
:103EB000A9FC1B4B19686B68C81A2268B2F1FF3F56
:103EC00027D0184E3668D5F800C0B44501D08B42D3
:103ED00024D9824215D80023236001241AE04FF030
:103EE000500383F31188BFF36F8FBFF34F8FFEE74B
:103EF0004FF0500383F31188BFF36F8FBFF34F8FE1
:103F0000FEE75B1A134423602846FFF7BFFF002437
:103F100000E0002400F098FC204670BD0124F9E781
:103F20004415002000150020014B01221A60704743
:103F300048150020054B1B6833B1054B1B680BB1BE
:103F4000002070470220704701207047181500209C
:103F5000C414002000283BD038B504461E4B1B6813
:103F6000834208D04FF0500383F31188BFF36F8F63
:103F7000BFF34F8FFEE7036D43B94FF0500383F358
:103F80001188BFF36F8FBFF34F8FFEE7013B0365CF
:103F9000C16AC26C91421DD00BB1002038BD051D15
:103FA0002846FEF7D5FEE06CE062C0F13803A3615D
:103FB0000A4B1B68984201D9084B186000EB80003F
:103FC0002946074B03EB8000FEF79EFE0120E5E744
:103FD000002070470020E1E74C100020CC140020A6
:103FE00058100020044A136898691368DB6A126845
:103FF000C3F13803936170474C100020064B1A68D8
:104000001368B3FA83F35B09036013B9D3681868C4
:1040100070470020704700BF4C15002008B5416074
:10402000006191420CD8D21A83699A4201D30120CF
:1040300008BD011D094B1868FEF771FE0020F7E767
:104040009A4201D2994206D2011D054B1868FEF72B
:1040500066FE0020ECE70120EAE700BF50150020D3
:104060004C15002030B583B000F0CCFB114B1B6821
:104070001BB100F0E9FB03B030BD0F4D2846FEF741
:1040800035FE0E4C2046FEF731FE0D4B1D600D4BEC
:104090001C60002300930C4B0C4A10210A20FEF7F1
:1040A0005DFF044B18600028E3D00949FFF7A0F931
:1040B000DFE700BF70160020F4150020081600206E
:1040C0004C1500205015002020160020541500200B
:1040D0004499000810B588B0FFF7C4FF124B1B6865
:1040E000CBB100240594069407AA06A905A800F000
:1040F00013FA059B0293069B019302230093234628
:10410000079A0A490A48FFF733FB0A4B186010B1B7
:10411000012008B010BD4FF0500383F31188BFF3A6
:104120006F8FBFF34F8FFEE7701600204C99000889
:104130001544000874160020B8B19C460346184880
:10414000006858B300B585B000910192029305292B
:104150001CDCFFF7EFFE022810D000231A46694648
:104160000F480068FEF76AFF15E04FF0500383F335
:104170001188BFF36F8FBFF34F8FFEE70023069ABE
:10418000694607480068FEF759FF04E000236246CD
:104190006946FFF717F805B05DF804FB002070478B
:1041A0007016002070B582B01A4B1B681A6852B3A3
:1041B000DB681E68DC68251D2846FEF7C9FD636ABA
:1041C00020469847E369012BEED1A36933449E4210
:1041D00007D26360246129460E4B1868FEF79FFDE5
:1041E000E2E7002100910B4632462046FFF7A4FF8C
:1041F0000028D9D14FF0500383F31188BFF36F8F9C
:10420000BFF34F8FFEE7044A10680249086013604D
:1042100002B070BD4C1500205015002038B5054681
:10422000FFF76AFB0446074B1B68834205D800234F
:104230002B60044B1C60204638BDFFF7B3FF012301
:104240002B60F6E71C16002070B582B006460D46BE
:1042500014490968C968CC68201DFEF779FDE16939
:10426000012904D0636A2046984702B070BDA16955
:1042700033462A4631442046FFF7D0FE0028F1D0CD
:10428000002100910B4632462046FFF755FF0028DB
:10429000E8D14FF0500383F31188BFF36F8FBFF362
:1042A0004F8FFEE74C15002070B582B006460C46D5
:1042B000FFF71AFB01A8FFF7B1FF019B2BBB0546D7
:1042C0000CB9B0421AD22CB1124B1B681C68B4FA5C
:1042D00084F464092246711B0F4B1868FFF79CF8A1
:1042E000FFF79CFB98B94FF0E0234FF08052C3F8E2
:1042F000042DBFF34F8FBFF36F8F08E0FFF78EFBE6
:1043000029463046FFF7A0FF01E0FFF787FB02B028
:1043100070BD00BF501500207016002010B588B089
:1043200002E0049B002B0FDA002204A9384B186826
:10433000FEF7AEFF002869D0049B002BF1DA079945
:104340000698059B9847ECE7069C636913B1201D0E
:10435000FEF7FEFC03A8FFF761FF049B092BE3D8DF
:1043600001A252F823F000BF9143000891430008D6
:104370009143000829430008D7430008FD43000883
:10438000914300089143000829430008D7430008DF
:10439000059BA169024619442046FFF73FFE00280D
:1043A000C2D0636A20469847E369012BBCD1A26959
:1043B000002100910B46059802442046FFF7BCFE01
:1043C0000028B1D14FF0500383F31188BFF36F8FF2
:1043D000BFF34F8FFEE70599A16131B10346024655
:1043E00001442046FFF71AFE9EE74FF0500383F387
:1043F0001188BFF36F8FBFF34F8FFEE794F82C3017
:10440000002B91D1204600F06DF98DE708B010BD6A
:104410007016002000B583B001A8FFF7EFFD0199E9
:10442000FFF742FFFFF77AFFF6E70000EFF305839F
:1044300093B9EFF3108393B90C4B1868022804D09A
:1044400080B90A4B01221A607047EFF31183002BE9
:10445000F6D06FF0050070476FF0050070476FF001
:10446000050070474FF0FF30704700BFD4180020A0
:1044700008B5EFF30583B3B9EFF31083B3B90E4B6F
:104480001B68022B08D0012B13D10B4B02221A60A0
:10449000FFF7DCF9002008BDEFF31182002AF2D00B
:1044A0006FF00500F7E76FF00500F4E76FF0050027
:1044B000F1E74FF0FF30EEE7D418002008B5EFF336
:1044C0000583A3B9EFF31083A3B90C4B1B68022B30
:1044D00002D040B9002008BDEFF31183002BF8D0C3
:1044E0006FF00500F7E7FFF715FB0020F3E76FF02B
:1044F0000500F0E76FF00500EDE700BFD4180020DD
:10450000034B0360034B0B6080231360704700BFB5
:104510007818002078160020034B0360034B0B60D3
:104520004FF4807313607047D81C0020D818002007
:10453000124A12F0070F1ED0D11D21F00701C1F55C
:10454000406313440A460E48026000214160134450
:10455000083B23F007030B48036059601960991A60
:1045600051601360084B1960084B1960084B4FF0FD
:1045700000421A6070474FF44063E4E7381D0020A2
:1045800044290020341D0020402900203C2900201F
:1045900038290020154B1A461B688342FBD351680B
:1045A00002EB010C844509D0416800EB010C634526
:1045B00009D00360904218D01060704740680144F1
:1045C00051601046F0E710B4094C2468A3420AD0A9
:1045D0005B681944416013681B680360904200D017
:1045E000106010BC70470460F8E770474429002051
:1045F000341D002070B50546FFF776F9344B1B6873
:10460000A3B1344B1B681D424AD135B1083515F0B2
:10461000070F02D025F007050835002D42D02E4B9C
:104620001B68AB424DD32D4A146804E0FFF780FFAE
:10463000E7E722461C466368AB4202D22368002BA0
:10464000F7D1234B1B68A3423DD016680836236878
:10465000136063685B1B102B10D9601910F0070FF3
:1046600008D04FF0500383F31188BFF36F8FBFF36F
:104670004F8FFEE743606560FFF78CFF6268164965
:104680000B689B1A0B60164909688B4201D21449CA
:104690000B60104B1B68134363600023236002E030
:1046A000002600E00026FFF7B9F916F0070F0CD03E
:1046B0004FF0500383F31188BFF36F8FBFF34F8F19
:1046C000FEE70026EFE70026EDE7304670BD00BFAD
:1046D000341D0020382900203C29002044290020D6
:1046E0004029002080B338B50446A0F1080550F8F1
:1046F000043C164A1268134208D14FF0500383F36A
:104700001188BFF36F8FBFF34F8FFEE750F8081C7F
:1047100041B14FF0500383F31188BFF36F8FBFF3A4
:104720004F8FFEE723EA020340F8043CFFF7DCF872
:1047300054F8041C064A13680B4413602846FFF71C
:1047400029FFFFF76BF938BD704700BF38290020FB
:104750003C29002082B0002301930D4B1B68B3F16C
:10476000FF3F08D04FF0500383F31188BFF36F8FE2
:10477000BFF34F8FFEE74FF0500383F31188BFF371
:104780006F8FBFF34F8F019B002BFCD002B070479F
:104790000C00002006480068006880F3088862B6B4
:1047A00061B6BFF34F8FBFF36F8F00DF00BF000014
:1047B00008ED00E04FF0807340F8043C21F0010167
:1047C00040F8081C034B40F80C3C40F8202C4038C3
:1047D000704700BF554700080000000000000000BF
:1047E000074B19680868B0E8F00F80F30988BFF339
:1047F0006F8F4FF0000080F311884EF00D0E704760
:104800004C1000204FF0500383F31188BFF36F8FDB
:10481000BFF34F8F0B4A136801331360012B00D095
:1048200070474FF0E023D3F8043D13F0FF0FF7D0AB
:104830004FF0500383F31188BFF36F8FBFF34F8F97
:10484000FEE700BF0C000020094B1B6843B94FF086
:10485000500383F31188BFF36F8FBFF34F8FFEE7D1
:10486000013B034A13600BB983F31188704700BF03
:104870000C0000200000000000000000000000000C
:10488000EFF30980BFF36F8F0D4B1A6820E9F00F2B
:1048900010602DE908404FF0500080F31188FFF7B9
:1048A0005FF94FF0000080F31188BDE808401968F7
:1048B0000868B0E8F00F80F30988BFF36F8F704786
:1048C0004C10002008B54FF0500383F31188BFF35C
:1048D0006F8FBFF34F8FFFF715F828B14FF0E0232C
:1048E0004FF08052C3F8042D002383F3118808BDD4
:1048F0004FF0E022002313619361054B1B680549CB
:10490000A1FB03139B09013B53610723136170470C
:1049100008000020D34D621010B582B02A4B1A78DF
:10492000D2B20192FF221A701B78DBB28DF80330ED
:104930009DF8033003F05003244A1370244B0722E0
:104940001A6009E0224A1368013B13609DF80330A6
:104950005B00DBB28DF803309DF8033013F0800F5D
:10496000F0D11B4B1B68032B08D04FF0500383F38F
:104970001188BFF36F8FBFF34F8FFEE71B02144AFE
:10498000136003F4E0631360019BDBB20E4A137003
:104990004FF0E023D3F8202D42F47002C3F8202D0D
:1049A000D3F8202D42F07042C3F8202DFFF7A0FF6E
:1049B0000024084B1C60FFF7EDFEFFF7D1F8FFF76E
:1049C000C9FE204602B010BD00E400E04C290020E2
:1049D000502900200C000020EFF305830F2B0FD986
:1049E000114A9B5CDBB2114A12789A4208D94FF007
:1049F000500383F31188BFF36F8FBFF34F8FFEE730
:104A00004FF0E023D3F80C3D03F4E063084A12684A
:104A1000934208D94FF0500383F31188BFF36F8F8F
:104A2000BFF34F8FFEE77047F0E300E04C29002012
:104A30005029002000B585B0002301930293039311
:104A40001048114A02608360037303754FF46022BB
:104A5000C26143600123036100F016F960B90023CD
:104A6000019301220292039301A9064800F03EF847
:104A700028B905B05DF804FBFCF77CF8EFE7FCF71C
:104A800079F8F6E7542900200024014000B587B0EA
:104A9000002302930393049305930268114B9A42F7
:104AA00002D007B05DF804FB03F56C439A6942F449
:104AB00000729A619A6902F400720092009A9A69EF
:104AC00042F004029A619B6903F004030193019B85
:104AD000012302930323039302A90348FDF78AFDF0
:104AE000DFE700BF002401400008014030B482B07D
:104AF0000022019290F82420012A00F091800346C0
:104B0000012280F824204A68062A2DD80468606BA8
:104B100002EB8202053A4FF01F0C0CFA02FC20EA6D
:104B20000C000D6805FA02F2024362630A68092A62
:104B30003AD91C68E06802EB42021E3A4FF0070CBB
:104B40000CFA02FC20EA0C008D6805FA02F202431E
:104B5000E2600A68103A012A36D90020002283F860
:104B6000242002B030BC70470C2A0ED80568286B90
:104B700002EB8202233A1F24944020EA04000C68CE
:104B800004FA02F202432A63D0E70568E86A02EBFE
:104B90008202413A1F24944020EA04000C6804FA7F
:104BA00002F20243EA62C1E71C68206902EB42029A
:104BB0004FF0070C0CFA02FC20EA0C008D6805FA95
:104BC00002F202432261C4E71A681648824205D005
:104BD0009A6A42F020029A620120BFE7906810F4BE
:104BE000000F1BD1906840F4000090600A68102A02
:104BF00001D00020B2E70C4A12680C49A1FB021256
:104C0000920C02EB82025200019202E0019A013AF8
:104C10000192019A002AF9D100209FE700209DE728
:104C200002209EE7002401400800002083DE1B4391
:104C300038B503689A6812F0010F01D1002038BD21
:104C400004469A6822F001029A60FDF7F1F80546E1
:104C500023689B6813F0010F13D0FDF7E9F8431B9D
:104C6000022BF5D923689B6813F0010FF0D0A36ADB
:104C700043F01003A362E36A43F00103E3620120FF
:104C8000DDE70020DBE7000000287BD070B504469C
:104C9000836A002B4DD02046FFF7CAFFA36A13F0AA
:104CA000100369D1002867D1A26A22F4885222F049
:104CB000020242F00202A2626268E1690A43217BB9
:104CC00042EA4102A568B5F5807F02D0012D36D0B9
:104CD0001D46267D012E35D02668716821F4694174
:104CE000294371602568AE68274931401143A960A6
:104CF000A168B1F5807F01D0012902D12369013B70
:104D00001B052568E96A21F470010B43EB622368F7
:104D100099681E4B0B409A4225D0A36A23F01203D8
:104D200043F01003A362E36A43F00103E36201204E
:104D300027E0C36280F82430FFF7A8FEABE74FF40A
:104D40008075C6E731B9A169013945EA413141F4BD
:104D50000065C1E7A16A41F02001A162E16A41F06A
:104D60000101E162B8E70023E362A36A23F00303D1
:104D700043F00103A36204E0A36A43F01003A362BB
:104D8000012070BD01207047FDF7E1FFFE0E1FFFFF
:104D90000C480D490D4A002302E0D458C450043396
:104DA000C4188C42F9D30A4A0A4C002301E013606C
:104DB0000432A242FBD3FDF7F5FD00F011F8FBF73A
:104DC00019FF704700000020E4010020F09D00085A
:104DD000E401002098290020FEE7002100F00CBF2C
:104DE00070B500260C4D0D4C641BA410A64209D1D1
:104DF00004F01CFD00260A4D0A4C641BA410A642B8
:104E000005D170BD55F8043B98470136EEE755F8DB
:104E1000043B98470136F2E7E89D0008E89D00084A
:104E2000E89D0008EC9D00080A44914200F1FF3320
:104E300000D1704710B511F8014B914203F8014FB2
:104E4000F9D110BD03460244934200D1704703F8E4
:104E5000011BF9E70EB46FF0004100B59CB01DAB2B
:104E600002900690079104910848094953F8042BD1
:104E70000591006802A9019302F032F80022029B1A
:104E80001A701CB05DF804EB03B0704710000020EE
:104E90000802FFFF0EB44FF4017230B59CB01FAC96
:104EA00054F8045BADF8142002900690FBF750F91B
:104EB0000B4B03900B9300230F9314934FF6FF7348
:104EC00007900848ADF816302A46234602A9006824
:104ED000019402F05FF91CB0BDE8304003B07047A8
:104EE0000B4F00081000002010B50C46B1F90E1051
:104EF00002F0B2FD0028ABBF636DA3891B1823F439
:104F00008053ACBF6365A38110BD002070472DE9BD
:104F1000F0411F468B890546DB050C46164605D534
:104F200002230022B1F90E1001F0FAF9A3893246EA
:104F300023F48053A38128463B46B4F90E10BDE804
:104F4000F04100F065BE10B50C46B1F90E1001F04D
:104F5000E7F9431CA38915BF606523F4805343F42C
:104F60008053A38118BFA38110BDB1F90E1000F0CA
:104F700061BE0346C9B2184613F8012B12B18A422A
:104F8000F9D17047002918BF00207047034610B5BB
:104F900072B10139841813F8010B11F8012F9042F6
:104FA00001D1A34201D1801A10BD0028F3D1FAE744
:104FB0001046F9E70A7870B56AB970BD9A4209D10E
:104FC0000C46054614F8013F002BF6D015F8016F8A
:104FD0009E42F7D001300378002BEFD11846ECE762
:104FE0002DE9F0410F46904601F02EFD04460D4696
:104FF000B8F1000F11D0C7F30A53C3F16B03002BB4
:105000000BDD00241B0503F17F5505F540152246F5
:105010002B46FBF761FA04460D4620462946BDE8BB
:10502000F0810000000000002DE9F04F9B460023B6
:105030009FB01A939E4B82461F680E4638461592C3
:10504000FBF786F84FF0000804464FF00009199668
:10505000199B1A782B2A4CD03AD80D2A33D8082A13
:1050600033D8002A3DD000230A93199D2B78302B8A
:1050700040F0AA806B7803F0DF03582B66D10A9BBF
:10508000504601931AAB00938A4ACDF808B01BAB87
:1050900019A900F047FE10F00706044605D0062EB9
:1050A00029D10023013519950A93159B002B40F057
:1050B0008A850A9BD3B1424609F10043104619463E
:1050C0001FB0BDE8F08F202ACDD101331993BFE77F
:1050D0002D2AC8D101220A925A1C19925B78002B02
:1050E000C3D1159B1996002B40F06B8542464B4669
:1050F000E4E70022EFE71A9A3AB135211CA801F043
:10510000A7FD50461A9901F06FF9013E042E06D80A
:10511000DFE806F00A0314170A00DDE91C892107FD
:10512000C3D549F00049C0E71B9ADDE91C8302F2B0
:10513000334223F4801343EA0259F0E7DFF8789111
:10514000EDE76FF000494FF0FF38E8E7199B5A1C74
:1051500019925B78302BF9D0002BA6D0012307934E
:10516000199B0A22089300239B46CDE90533199821
:105170000578A5F13003D9B2092927D92246394645
:10518000FFF704FF002833D000202A465C46034680
:105190000490652A01D0452A14D11CB9079A02430C
:1051A0009FD00024199E721C199272782B2A79D0F4
:1051B0002D2A00F083800027A2F13001092940F256
:1051C0008380199600259FE00023C8E7BBF1080FF4
:1051D000D5BF0699059902FB013302FB013300F1AB
:1051E0000100D4BF069305930BF1010B1990BEE7A4
:1051F000199B1A1919921A5DBBF1000F36D05C4643
:105200000490A2F13003092B12D90123C1E7199BA5
:1052100001305A1C19925A78302AF8D0A2F1310381
:10522000082B00F2D584049000200446199B0893B3
:10523000303A00F1010313D004990519194404917F
:1052400023460A21AB4213D12318082B04F1010491
:1052500004441BDC0A23069903FB01230693002365
:10526000199A1846511C19915278CAE75846D3E743
:10527000082B04DC069F4F4306970133E2E75F1CCF
:10528000102FDEBF059F4F430597F6E7102CDFBFB9
:105290000A23059903FB01230593E0E70023049308
:1052A00001237BE70027B21C1992B27884E700BF84
:1052B000549A0008649900080000F07F0127F2E783
:1052C000199A511C19915278302AF9D0A2F1310162
:1052D00008293FF677AF4FF00A0EA2F1300C199A69
:1052E0000992199A511C19915278A2F13005092D91
:1052F00035D9099D491B082944F61F6502DC65451F
:10530000A8BF654607B16D42002C4CD107990143F7
:105310007FF4CBAE002B7FF4E4AE692A26D023DCE9
:10532000492A23D04E2A7FF4DCAE9D4919A800F00B
:1053300047FF00283FF4D5AE199B1B78282B2CD1B2
:1053400098491CAA19A800F04FFF052825D11D9BDC
:10535000DDF8708043F0FF4949F4E009A5E60EFB53
:105360000C2CACF1300CBCE76E2ADCE78E4919A896
:1053700000F026FF00283FF4B4AE199B8B49013B97
:1053800019A8199300F01CFF10B9199B0133199348
:105390004FF00008DFF8189287E6864802F06EFBAF
:1053A0008046894681E6049BBBF1000F08BFA346F7
:1053B000EB1A102C069826460793A8BF1026FBF779
:1053C00011F8092C8046894613DD7B4B03EBC6039D
:1053D00053E91223FBF780F8804605988946FBF7CE
:1053E00001F802460B4640464946FAF7BFFE8046A2
:1053F00089460F2C36DC079B002B3FF456AE22DD8E
:10540000162B09DC6C49424601EBC3014B46D1E93E
:105410000001FBF761F8C3E7079AC4F12503934243
:1054200020DB654DC4F10F0405EBC4014246D1E910
:1054300000014B46FBF750F8079B1C1B05EBC4050E
:10544000D5E90023E5E7079B16330BDB049B4046B9
:105450005D1B594B494603EBC505D5E90023FBF716
:1054600065F99DE7079BA61B1E44002E74DD16F010
:105470000F030AD05049424601EBC301D1E90001B4
:105480004B46FBF729F88046894636F00F0652D086
:10549000B6F59A7F27DD4FF0000BCDF810B0CDF8B0
:1054A00020B0CDF818B022234FF00008DFF80091AB
:1054B000CAF80030089B002B3FF4F7AD50461A990C
:1054C00000F092FF5046069900F08EFF5046049976
:1054D00000F08AFF5046089900F086FF5946504672
:1054E00000F082FFE1E5354B404605930023494635
:1054F0001F463611012E21DC0BB1804689462F4B09
:10550000A9F1547903EBC7074246D7E900014B469E
:10551000FAF7E2FF264B0A460B40294980468B42A8
:10552000B9D8A1F580118B4286BF4FF0FF38DFF864
:10553000949002F15479002305937FE0F20705D59A
:10554000059BD3E90023FAF7C7FF0123059A01372A
:10555000083276100592CDE7EDD0764216F00F02B4
:105560000AD0154B404603EBC2034946D3E900235A
:10557000FBF7DCF8804689463611DCD01F2E23DD90
:105580004FF0000BCDF810B0CDF820B0CDF818B02A
:1055900022234FF000084FF00009CAF8003089E7D5
:1055A0006199000878990008589900085B990008EB
:1055B0000000F07F859C0008289B0008009B0008E5
:1055C0000000A07CFFFFEF7F16F0100318BF6A23D6
:1055D0004046059349460023B04FF20704D5D7E96A
:1055E0000023FAF779FF0123761007F10807F4D1B9
:1055F0000BB180468946059BC3B1C9F30A52C2F17B
:105600006B03002B494611DD1F2B40F32781342B00
:10561000D8BF4FF0FF334FF00008CFBF4FF05C7999
:10562000C2F14B0203FA02F202EA0109002200234E
:1056300040464946FBF7B8F90028A1D1069B5A46D7
:10564000009350462346089900F036FF0890002842
:105650003FF421AF049B4FF0000B5D1B079BCDF87F
:1056600010B0002BB4BF2B4600230E93079B23EAF8
:10567000E3731493089B5046596800F075FE06903A
:1056800000283FF410AF089B0C301A6903F10C019D
:1056900002329200FFF7C8FB1CAB01931BAB0093D7
:1056A00042464B465046CDE90C8901F047FA1A9024
:1056B00000283FF4F8AE0121504600F095FF034664
:1056C000049000283FF4EFAE1B9D1C9A002DABBF49
:1056D0000E9B149BEE185C1B059BA8BF149CA5EBAE
:1056E000030515446E4B05F1FF35B8BF0E9E9D4274
:1056F000C2F1360280F2C4805B1B1F2B4FF0010702
:10570000A2EB030200F3B180002507FA03F30F9325
:10571000B718059BBE4214441C443346A8BF3B4601
:10572000A342A8BF2346002BC2BFFF1AE41AF61AF1
:105730000E9B002B17DD1A465046049901F012F813
:10574000049000283FF4AFAE01461A9A504600F08C
:1057500061FF099000283FF4A6AE50461A9900F068
:1057600043FE099B1A93002F00F38E80079B002BAA
:1057700008DD5046149A069900F0F4FF06900028C0
:105780003FF491AE002C08DD22465046069901F008
:1057900043F8069000283FF486AE002E08DD32461E
:1057A0005046049901F038F8049000283FF47BAE8D
:1057B0005046069A1A9901F0BBF8834600283FF438
:1057C00072AE0024C3680499C4600B9301F094F88E
:1057D000A0426BDA0B9B53EA080340F09180C9F3B7
:1057E0001303002B40F08C8029F000431B0D1B0598
:1057F000B3F1D66F40F28480DBF814301BB9DBF8CC
:105800001030012B7CDD59460122504601F004F88E
:105810000499834601F070F8002871DD05994B4624
:10582000204A002900F08C8002EA0901B1F1D66F0C
:1058300000F38680B1F15C7F7FF7AAAE404649460F
:10584000194B0022FAF748FE0B46034308BF2223F8
:105850008046894608BFCAF800302FE64FF0FF3275
:1058600002FA03F303EA0808E0E6C5F17F4505F50F
:105870007F0505F57B45E23507FA05F50F9747E704
:10588000012300250F9343E73A4650461A9900F04A
:10589000C3FF1A9000287FF469AF04E690990008CE
:1058A00002FCFFFF0000F07F00005039CDF824908B
:1058B00065D10B9AC9F313035AB3994A93422BD17A
:1058C000059B414603B34A46964B1340B3F1D46F50
:1058D0004FF0FF321BD81B0DC3F16B0302FA03F329
:1058E000994219D1904B099A9A4202D101313FF461
:1058F000DAAD4FF000088B4B099A1A4002F5801977
:10590000059B002B9AD1D9E54FF0FF33E8E713460A
:10591000E6E753EA080381D0E5B1099B1D42EFD0C9
:105920000B9B40464946059AC3B1FFF759FB024617
:105930000B46DDE90C01FAF719FC80468946DFE7E2
:105940001340A3F580136FEA13594FF0FF386FEA45
:105950000959D5E70F9B13EA080FE0E7FFF740FB73
:1059600002460B46DDE90C01FAF7FEFB002200239C
:1059700080468946FBF718F80028C1D008E658464B
:10598000049901F037F900224FF0804306460F4694
:10599000FBF71EF8002870D00B9B002B42D000268E
:1059A000624F624D099B23F000431B0D1B050F93B3
:1059B0000F9A5F4B9A4240F0C380099B4046A3F187
:1059C0005479494601F040F802460B4630463946C4
:1059D000FAF782FD42464B46FAF7C8FB0B4651499F
:1059E000544A1940914280465DD90D9A4E4B9A42D5
:1059F00003D10C9B01333FF456AD4FF0FF38DFF875
:105A0000289150461A9900F0EFFC5046069900F094
:105A1000EBFC5046049900F0E7FC5946504600F074
:105A2000E3FC27E6B8F1000F19D1099BC3F3130378
:105A3000E3B90022304639463C4BFAF7BFFFC8B9FC
:105A40000022304639463C4BFAF746FD04460D46E7
:105A500005F1004316941793DDE91667A2E7B8F144
:105A6000010F03D1099B002B3FF492AD00260024C7
:105A7000324F96E70B9C304DEAE72F4B0022304621
:105A80003946FAF729FD0B9B04460D4633B901F15F
:105A9000004310901193DDE9106783E702460B463F
:105AA000CDE91023F7E703F15479059B002BA8D12A
:105AB00029F000430F9A1B0D1B059A42A1D12046E5
:105AC0002946FBF701F8FAF7D9FC02460B462046B7
:105AD0002946FAF749FB0B9AC9F3130343EA080373
